:020000040800F2
:100000000007002091010008ED1700089516000870
:10001000E9170008B1050008951800080000000065
:10002000000000000000000000000000F5170008BC
:10003000C105000800000000F1170008F9170008CA
:10004000AB010008AB010008AB010008AB010008E0
:10005000AB010008AB010008AB010008AB010008D0
:10006000AB010008AB010008AB010008B5050008B2
:10007000AB010008AB010008AB010008AB010008B0
:10008000AB010008AB010008AB010008AB010008A0
:10009000AB010008AB010008AB010008AB01000890
:1000A000AB010008AB010008AB010008AB01000880
:1000B000AB010008AB010008AB010008AB01000870
:1000C000AB010008AB010008AB010008AB01000860
:1000D000AB010008AB010008AB010008AB01000850
:1000E000AB010008AB010008AB01000800F002F80A
:1000F00000F03FF80AA090E8000C82448344AAF183
:100100000107DA4501D100F034F8AFF2090EBAE880
:100110000F0013F0010F18BFFB1A43F0010318473B
:10012000181B0000381B0000103A24BF78C878C1A3
:10013000FAD8520724BF30C830C144BF04680C60ED
:10014000704700000023002400250026103A28BF35
:1001500078C1FBD8520728BF30C148BF0B60704739
:10016000642900F08980002070471FB51FBD10B5BD
:1001700010BD00F061F91146FFF7F7FF01F052FCE6
:1001800000F07FF903B4FFF7F2FF03BC00F086F93B
:100190000948804709480047FEE7FEE7FEE7FEE71B
:1001A000FEE7FEE7FEE7FEE7FEE7FEE70448054957
:1001B000054A064B7047000091180008ED00000842
:1001C00000010020000700200003002000030020A1
:1001D0000FB41CB50C0007AA009007D04142A14201
:1001E00002D32044401E01E04FF0FF30074B7B4418
:1001F00069460190069800F004F90020002C01D017
:10020000009908701CBC5DF814FB00003702000068
:100210002DE9F0410E460446002020622046E168A8
:10022000884730B3252805D0D4E901219047206ABA
:10023000401CF2E7E168204600278847050018D0F7
:10024000A5F14100192802D820354FF40067324645
:10025000294620462760FFF783FF40B1012804D0DC
:10026000F61D26F007060836D8E7361DD6E72846DD
:10027000DAE7206ABDE8F0812DE9F0410646002466
:1002800010687529314616A510D0AFF300800028FC
:1002900002DA404213A507E031688A0701D512A5AA
:1002A00002E0490704D511A5012401E0AFF3008065
:1002B00000210A2206F1240709E0B0FBF2FCB0FBA2
:1002C000F2F302FB1C00303078541846491C002819
:1002D000F3D123462A463046BDE8F04100F032B85B
:1002E000000000002D0000002B0000002000000096
:1002F0004FF0000200B5134694469646203922BFBF
:10030000A0E80C50A0E80C50B1F12001BFF4F7AF09
:10031000090728BFA0E80C5048BF0CC05DF804EBEB
:10032000890028BF40F8042B08BF704748BF20F859
:10033000022B11F0804F18BF00F8012B7047704757
:10034000704770472DE9F0470D469946924604469E
:1003500000F124080168880604D5E06921F0100145
:10036000216000E00120A84201DD471B00E00027DA
:10037000A1697A1902EB0900081AA0612078C00669
:1003800002D42046AFF30080002608E0D4E9012122
:100390001AF806009047206A401C761C20624E45E1
:1003A000F4DB2078C0060AD52046AFF3008006E0D3
:1003B000D4E9012130209047206A401C2062381E79
:1003C000A7F10107F4DC07E0D4E9012118F80500E2
:1003D0009047206A401C2062281EA5F10105F3DC2D
:1003E0002046AFF300802078000602D50220BDE849
:1003F000F0870120FBE7000001694A1C02610878D0
:10040000704700B58FB0CDE9013100210591054954
:100410007944CDE9031011466846FFF7F9FE0FB0A5
:1004200000BD0000E5FFFFFFD1E900239A4202D2A0
:10043000531C0B6010707047754600F02BF8AE46E9
:1004400005006946534620F00700854618B020B5E0
:10045000FFF7ACFEBDE820404FF000064FF000076C
:100460004FF000084FF0000BAC46ACE8C009ACE818
:10047000C009ACE8C009ACE8C00921F007018D460D
:10048000704710B50446AFF300802046BDE8104029
:10049000FFF778BE0048704710000020014918207F
:1004A000ABBEFEE726000200704700000146406A2E
:1004B000826A12F0500F03D0006A026B08461047A0
:1004C0000168826A42F400728262896801F46021E4
:1004D000B1F5602F01D1017B09B100F001B9816A4A
:1004E00021F480718162816AC90448BF00F0F8B8C4
:1004F000816A41F00101816200F0F2B8406A816ACC
:1005000041F040018162C16A41F00401C16200F022
:10051000EBB80000406A00F0E5B80000B0B582B06A
:1005200004460020019021688A68D2073DD188687E
:1005300040F00100886040F20000C2F20000006854
:100540004DF68361C4F21B31A0FB0101880C00BF92
:100550000190019810B101980138F9E700F0CCFC46
:1005600021688968C9071CD1054603E020688068B6
:10057000C00719D100F0C0FC401B0328F6D3206847
:100580008068C007F2D1A06A40F01000A062E06A63
:1005900040F00100E062002084F82400012002B055
:1005A000B0BD002002B0B0BD002002B0B0BD000060
:1005B000FEE7000040F2A400C2F2000000F032BAF0
:1005C00070470000EFF3108072B600BFFEE7000036
:1005D000B0B581B00022009290F82420012A01D108
:1005E000022179E04A680123062A02EB820C80F896
:1005F000243005D8026802F1340E6FF004020AE0DC
:1006000003680C2A87BF03F12C0E6FF0400203F140
:10061000300E6FF022026244DEF800C01F230C6827
:1006200093402CEA030304FA02F21A43CEF80020A6
:10063000D1F800E002680EEB4E041023BEF1090F62
:1006400088BF1E3C88BF0C2352F803C00725896869
:10065000A5402CEA0505A1402943D1502EF0010107
:100660004FF0000C10294FF0000133D1016842F225
:100670000042C4F20102914205D0816A41F020019A
:100680008162012126E09268120222D48A68BEF1BA
:10069000100F42F400028A601BD140F20001C2F246
:1006A000000109684DF68362C4F21B32A1FB0212FD
:1006B000910C01EB810149000091009949B100BF03
:1006C000009901390091009900294FF00001F7D1FC
:1006D00000E0002180F824C0084601B0B0BD000051
:1006E000704700007047000070470000B0B5002858
:1006F00046D00446806A30B90020E06284F82400C5
:10070000204600F0A1F820688168C90709D08168F7
:1007100021F00101816000F0EFFB21688968C907C1
:1007200030D100200121A36AA26A31B313F0100175
:1007300023D141F2021122EA01010231A162E169F1
:10074000D4E9013241EA030C531EB3FA83F35D0985
:100750001346B2F5807F18BF2B02217D257B01292E
:100760004CEA450E31D13DB3A56A45F02005A5629E
:10077000E56A45F00105E56227E042F01000A0625D
:100780000120B0BD054603E020688068C007C8D0DE
:1007900000F0B2FB401B0328F6D320688068C00736
:1007A000F2D0A06A002140F01000A062E06A40F0A0
:1007B0000100E0620120B6E7D4F818C04EF600054B
:1007C000CFF6FF7505EB4C352B432568B2F5807FDE
:1007D000696821F4694141EA03016960A9684FF23F
:1007E000FD73CFF6E17301EA030141EA0E01A9604E
:1007F00001D0012A06D121690022CFF6F07202EB66
:10080000015200E00022E96A21F470011143E9621B
:10081000A96840F6FE62CFF61F721140714507D1FC
:100820000021E162A16A012262F30101A162B0BD6F
:10083000A06A40F0100020F00200A062E06A40F0E0
:100840000100E0620120B0BD70B586B0044640F6FC
:100850000000C4F20100216800F5E0520026914238
:100860000596CDE90366029601D006B070BD41F24F
:100870001801C4F202010A6842F400720A600A68B0
:1008800002F400720192019A0A6842F004020A60BE
:10089000096801F0040101910199402102910321AD
:1008A000039102A900F01AFA40F2A4050820C2F24E
:1008B0000005C4F202004FF48072C5E9000605F19C
:1008C000100080214FF480634FF0200C80E80C1062
:1008D0002846C5E90261EE6100F05CF9002818BF06
:1008E000FFF770FE25626C6206B070BD2DE9F04125
:1008F0000546006842F60006C4F201069046B04282
:100900000F4605D042F20041C4F2010188420AD1EB
:1009100042F20440C4F20100006810F4702F1CBFC2
:100920000120BDE8F08195F82400012804BF0220D1
:10093000BDE8F081012085F824002846FFF7EEFD90
:10094000044628B1002085F824002046BDE8F08147
:1009500042F204402968AA6AC4F2010040F6017319
:100960009A4300F57F7302F580729942AA6207D01C
:10097000A86A20F48010A8624868400518D512E0E3
:10098000026812F4702FF3D0AA6AB14242F48012C6
:10099000AA6205D042F20042C4F20102914207D19C
:1009A0000068400504D5A86A012262F30D30A862F0
:1009B000AA6A0020D2044FF0000244BFEA6A22F083
:1009C0000602EA6285F82400286A40F2AD42C0F6C9
:1009D000000240F2155340F2FD4600F1280CC0F62B
:1009E0000003C0F600068CE84C006FF002020A60BB
:1009F0008A68434642F480728A604C313A4600F07D
:100A00000DF92868816801F460228168B2F5602FD1
:100A10000CBF41F4A00141F4801181602046BDE883
:100A2000F081000010B5D0E90FCE0168DCF800308D
:100A30000A6823FA0EF35C0724D512F0040421D0CF
:100A40000A68920603D40A6822F004020A602F2280
:100A5000C4F20202914240F20402C4F2020253DDE7
:100A60003023C4F20203994266D04423C4F2020345
:100A7000994264D05823C4F20203994264D14FF4DE
:100A8000802369E09C0727D512F0020424D00A686D
:100A9000920606D40A6822F00A020A60012280F84F
:100AA00021202F22C4F20202914240F20402C4F239
:100AB000020235DD3023C4F20203994252D04423AE
:100AC000C4F20203994250D05823C4F2020399425F
:100AD00050D14FF4003355E01B075AD512F00802ED
:100AE00008BF10BD0A6822F00E020A60012101FA57
:100AF0000EF2CCF80420816380F82110016B0022F3
:100B000080F8202059BB44E00823C4F20203994234
:100B100018D01C23C4F20203994215D140231BE0D4
:100B20000823C4F20203994222D01C23C4F2020318
:100B300099421FD1202325E04FF480630CE04FF44D
:100B4000804309E0042307E002F168044FF080636A
:100B5000A14208BF4FF480031360C16AC9B1BDE868
:100B6000104008474FF400730CE04FF4005309E0C5
:100B7000022307E002F168044FF00073A14208BFAE
:100B80004FF400131360816A0022002980F82020AE
:100B9000E5D110BD014600284FF0010008BF7047A5
:100BA0002DE9F043D1F800C04FF6F873CBF6FD7392
:100BB0004CF6CD426344CCF6CC42A3FB02236FF04B
:100BC000030707EA93030027C4F2020701F10C09A7
:100BD000C1E90F730223D1E9012E99E87002D1F81F
:100BE0001C8081F82130DCF8003043F6F077BB43FD
:100BF0001A4342EA0E0222432A43324342EA0902DE
:100C000042EA0802CCF8002000228A6381F8210021
:100C100081F820200020BDE8F0437047F0B590F83F
:100C200020C0BCF1010F2FD04FF0010E80F820E062
:100C300090F821C0BCF1010F23D14FF0020C80F8D5
:100C400021C04FF0000CC0F838C0D0E900C4C56A1C
:100C5000C66BDCF80070102C27F00107CCF8007090
:100C6000006C0EFA00F070600846CCF8043004BF47
:100C700010460A46CCF80800CCF80C2035B10E20FE
:100C80000BE0002180F820100220F0BDDCF800000D
:100C900020F00400CCF800000A20DCF80010084323
:100CA000CCF80000DCF8000040F00100CCF80000B7
:100CB0000020F0BDB0B5044600F01EF9054640F234
:100CC0000400C2F200000078611C18BF044400BF99
:100CD00000F012F9401BA042FAD3B0BD2DE9F04F4D
:100CE00082B00E68002E00F0F68041F20042C4F29D
:100CF0000102042340F2004E904208BF03234FF646
:100D0000FF7CC4F2010E009300240123C1F2100CF9
:100D10004FF0000A4FF0000943E0012704F00C03F4
:100D20000F229A402BEA020207FA03F34FEA9A05D0
:100D30001A4346F825204E6840F20C45F202DEF8D0
:100D4000082054BF22EA080242EA0802C4F2010560
:100D5000CEF808202A68B30254BF22EA080242EA09
:100D600008022A60B303DEF8042054BF22EA080216
:100D700042EA0802F303CEF80420DEF800204FF028
:100D8000010354BF22EA080242EA0802CEF800201A
:100D90000E680AF1010A36FA0AF204F1040400F0BE
:100DA0009A8003FA0AFB16EA0B08F1D04E686645F2
:100DB00010DC122E50D8DFE806F0330A41454F4FC1
:100DC0004F4F4F4F4F4F4F4F4F4F4F484C00D1F861
:100DD0000C9041E04FF6FF72C1F2210296420FDC07
:100DE0000022C1F2110296421AD00022C1F2120270
:100DF000964215D00022C1F22102964210D02BE07B
:100E00000022C1F2220296420AD00022C1F231022F
:100E1000964205D00022C1F2320296421CD100BF98
:100E20008A6842B1012A14BFC0F814B0C0F810B0EB
:100E30004FF0080910E04FF004090DE0CA6802F114
:100E4000080909E04FF0000906E0CA6802F1040948
:100E500002E0CA6802F10C0922460646B8F5807F16
:100E600024BF203A043637680F25954027EA050548
:100E700009FA02F22A433260CA79D2067FF588AFB6
:100E800041F21803C4F202031A68AEF57E7642F00E
:100E900001021A601A6802F001020192019A2AF016
:100EA000030256F802B040F60002C4F2010290427A
:100EB0000FD040F60042C4F2010290423FF42DAF41
:100EC00041F20002C4F20102009F904208BF0227D3
:100ED00024E7002722E702B0BDE8F08FC26802EAEB
:100EE0000103914341EA034101617047002A08BFB1
:100EF000090401617047000040F2FC00C2F20000EA
:100F00000068704740F2040040F2FC01C2F20000A9
:100F1000C2F2000100780A681044086070470000BF
:100F200080B542F20000C4F20200016841F01001F5
:100F30000160032000F08EF80F2000F005F800F0AB
:100F40002BF8002080BD0000B0B540F20402C2F2D0
:100F5000000240F200011278C2F200014FF47A73ED
:100F60000968B3FBF2F20446B1FBF2F1084600F067
:100F70007BFB0F2C4FF001050CD858B94FF0FF3018
:100F800021460022002500F039F840F20800C2F2A4
:100F9000000004602846B0BD82B041F21800C4F2DF
:100FA00002000168022241F001010160016801F0C4
:100FB000010101910199416841F08051416040680F
:100FC00000F08050009000980420C4F201000168F5
:100FD00062F31A61016002B070470000002848BF48
:100FE000704700F01F01012202FA01F14EF20012D7
:100FF0004009CEF2000242F82010704710B54EF6BC
:101000000C5CCEF2000CDCF80030C3F3022E8EF044
:101010000704042C28BF0424BEF103034FF0FF3E55
:101020000EFA04F438BF0023A14399400EFA03F3EB
:101030009A43114300F1604200F00F03090102F5E9
:101040006442043B6344002848BF03F10C02117062
:1010500010BD00004EF60C51CEF200010A684FF6AA
:10106000FF031A4060F30A2242F0806040F0FD70F6
:10107000086070472DE9F04182B00446007841F2E3
:101080001C06C007C4F202064AD0306810F080582F
:1010900008D1306840F080503060306800F08050F7
:1010A0000190019847F20007C4F200073868C005B4
:1010B00012D4386840F480703860FFF71DFF054691
:1010C0003868C00508D4FFF717FF401B6428F7D91C
:1010D000032002B0BDE8F081706810F4407012D0B7
:1010E000616801F4407188420DD0706840F240425E
:1010F000C4F24222012320F4407113600023C00790
:101100001360716029D17068616820F440700843F1
:10111000B8F1000F706003D1306820F0805030606B
:101120002068810707D556F8181CA26821F44041B1
:10113000114346F8181CC00603D4002002B0BDE8D5
:10114000F08156F8180CE16820F48000084346F856
:10115000180C002002B0BDE8F081FFF7CDFE054677
:1011600041F2883770688007CDD4FFF7C5FE401B79
:10117000B8424FF00300F5D9ECE700002DE9F04349
:1011800081B0002800F0858042F20008C4F2020815
:101190000446D8F800000D4600F0070088420CD243
:1011A000D8F8000020F007002843C8F80000D8F85D
:1011B000000000F00700A8426BD1206841F204094A
:1011C0008107C4F2020917D5410705D5D9F80010E7
:1011D00041F4E061C9F80010010705D5D9F8001005
:1011E00041F46051C9F80010D9F80010A26821F04C
:1011F000F0011143C9F80010C00741D1D8F8000030
:1012000000F00700A8420CD9D8F8000020F0070031
:101210002843C8F80000D8F8000000F00700A842F2
:1012200037D12068410707D5D9F80010E26821F4CA
:10123000E0611143C9F80010000708D5D9F8000093
:10124000216920F4605040EAC100C9F80000D9F8D3
:10125000002002F00C00082841F20020C0F27A00C1
:101260004ED141F61643C2F38341C0F60003595CE8
:10127000D20339D440F60010C0F23D0048433FE0AD
:101280006068022809D0012829D159F8041C890373
:1012900007D4012001B0BDE8F08359F8041C89018E
:1012A000F7D5D9F8001021F003010843C9F8000070
:1012B000FFF722FE064641F2883700BFD9F800004A
:1012C000616800F00C00B0EB810F97D0FFF714FEBF
:1012D000801BB842F2D9032001B0BDE8F08359F871
:1012E000041C8907D5D5DCE7D9F8002041F6144362
:1012F000C2F34042C0F600039A5C4843B0FBF2F0F0
:10130000D9F8001041F60442C1F30311C0F60002FF
:10131000515C40F2000220FA01F140F20800C2F2F2
:1013200000000068C2F200021160FFF70DFE00200D
:1013300001B0BDE8F08300002DE9F04182B0002843
:1013400000F0D7800446007841F20006C007C4F2DE
:10135000020644D0706800F00C00042817D07068B2
:1013600000F00C00082802D17068C0030FD4656833
:101370002DB1B5F5A02F10D0B5F5803F11D0306854
:1013800020F480303060306820F480200CE0306839
:10139000800324D5606810BBABE0306840F4802047
:1013A0003060306840F480303060FFF7A5FD002DDC
:1013B000054611D03068800311D4FFF79DFD401B16
:1013C0006428F7D916E100BFFFF796FD401B64289B
:1013D0004FF0030000F28A8030688003F4D4207854
:1013E000800718D5706810F00C0F07D0706800F0F7
:1013F0000C00082827D17068C00324D43068800707
:1014000002D52069012874D13068616920F0F800A4
:1014100040EAC1003060207800074FD5A06940B392
:101420000020C4F242200121C0F88014FFF764FDBF
:10143000054600BF706A80072DD4FFF75DFD401B95
:101440000228F7D9D6E02069002840F20000C4F253
:10145000422000F0A68001210160FFF74DFD054606
:1014600030688007D0D4FFF747FD401B0228F7D92A
:10147000C0E00020C4F242200021C0F88014FFF731
:101480003BFD0546706A800718D5FFF735FD401B08
:101490000228F7D9AEE040F20000C2F20000006876
:1014A00044F6D351C1F26201A0FB0101480A019048
:1014B00000BF0198411E00280191F9D12078400712
:1014C0001BD4E5698DB1706800F00C00082846D186
:1014D000012D0ED07068216A00F480328A4208D152
:1014E000616A00F47010884203D1002002B0BDE8A8
:1014F000F081012002B0BDE8F081F06910F0805861
:1015000008D1F06940F08050F061F06900F080503F
:101510000090009847F20007C4F200073868C00541
:101520000FD4386840F480703860FFF7E5FC05465A
:101530003868C00505D4FFF7DFFC401B6428F7D9E5
:1015400058E0E5681DB1052D3CD0012D3ED0306A34
:1015500020F001003062306A20F0040039E00027FA
:10156000C4F2422700203866FFF7C6FC022D05466C
:101570000CD100BF3068800154D5FFF7BDFC401B83
:1015800002284FF00300F5D9B0E700BF30688001B2
:10159000ABD5FFF7B1FC401B02284FF00300F5D993
:1015A000A4E700210160FFF7A7FC0546306880072B
:1015B0007FF531AFFFF7A0FC401B02284FF003007E
:1015C000F4D993E7306A40F004003062306A40F0AA
:1015D00001003062FFF790FC002D054641F288378C
:1015E00014D000BF306A800713D4FFF785FC401B7E
:1015F000B842F7D9032002B0BDE8F081FFF77CFCC8
:10160000401BB8424FF003003FF670AF306A8007CE
:10161000F4D4B8F1000F7FF454AFF06920F080509B
:10162000F0614EE7206AB0F5803F05D17168A2688D
:1016300021F40031114371607168626A21F4741100
:1016400011430843706001203866FFF755FC0446DB
:10165000306880013FF549AFFFF74EFC001B0228C0
:101660004FF00300F4D941E7411E0020B0EB116FA9
:101670001CBF012070474EF21002CEF200025160F2
:101680004EF62351CEF20001F0230B70072190603B
:1016900011607047FEE70000B0B56420FFF70AFB59
:1016A00040F60004C4F20104204620210022FFF786
:1016B0001DFC20464FF400710022FFF717FC4FF489
:1016C000702525612069102140F00300206120462B
:1016D0000122FFF70BFC0120FFF7ECFA2046102156
:1016E0000022FFF703FC0120FFF7E4FA0520FFF7D3
:1016F000E1FA204620210022FFF7F8FB20464FF4B4
:1017000000710022FFF7F2FB25612069102140F0F3
:101710000300206120460122FFF7E8FB0120FFF7CC
:10172000C9FA204610210022FFF7E0FB0120FFF755
:10173000C1FA0520FFF7BEFA204620210022FFF75C
:10174000D5FB20464FF400710022FFF7CFFB256147
:101750002069102140F00300206120460122FFF79C
:10176000C5FB0120FFF7A6FA204610210022FFF753
:10177000BDFB0120FFF79EFA0520FFF79BFA2046EC
:1017800020210022FFF7B2FB20464FF40071002217
:10179000FFF7ACFB25612069102140F002002061B9
:1017A00020460122FFF7A2FB0120FFF783FA204623
:1017B00010210022FFF79AFB0120FFF77BFA05209A
:1017C000FFF778FA2C2000F0EBF80F2000F0E8F893
:1017D0001C2000F0E5F8012000F0E2F80620BDE84A
:1017E000B04000F0DDB80000FEE70000FEE70000BA
:1017F0007047000070470000FFF784BB70B594B0DD
:101800000AAC20462821FEF773FD01200A900E90B5
:101810004FF4E01000254FF480310226139020464B
:101820000995CDE90755CDE90555CDE90355CDE934
:101830000155CDE90B15CDE91161FFF77DFD20B113
:10184000EFF3108072B600BFFEE70F20CDE905066A
:101850004FF48060CDE9080505A802210795FFF740
:101860008DFC20B1EFF3108072B600BFFEE70220BE
:1018700001904FF44040039001A8FFF7FBFB20B11B
:10188000EFF3108072B600BFFEE714B070BD000029
:1018900070470000FEE7000070B540F60004C4F297
:1018A00001040546204620210022FFF71FFB2046A9
:1018B0004FF400710022FFF719FB4FF470262661E8
:1018C0002069102140EA1510206120460122FFF70F
:1018D0000DFB0120FFF7EEF9204610210022FFF753
:1018E00005FB0120FFF7E6F9266120691021284356
:1018F000206120460122FFF7F9FA0120FFF7DAF90B
:10190000204610210022FFF7F1FA0120FFF7D2F95B
:101910000220BDE87040FFF7CDB9000070B540F679
:101920000004C4F201040546204620210122FFF7ED
:10193000DDFA20464FF400710022FFF7D7FA4FF48A
:10194000702626612069102140EA1510206120468A
:101950000122FFF7CBFA0120FFF7ACF92046102156
:101960000022FFF7C3FA0120FFF7A4F926612069DE
:1019700010212843206120460122FFF7B7FA0120F9
:10198000FFF798F9204610210022FFF7AFFA012057
:10199000FFF790F90220BDE87040FFF78BB9000017
:1019A00070B540F60004C4F201040546204620212B
:1019B0000022FFF79BFA20464FF400710022FFF748
:1019C00095FA4FF4702626612069102140EA15101F
:1019D000206120460122FFF789FA0120FFF76AF90A
:1019E000204610210022FFF781FA0120FFF762F95B
:1019F0002661206910212843206120460122FFF73B
:101A000075FA0120FFF756F9204610210022FFF752
:101A10006DFA0120FFF74EF90220BDE87040FFF794
:101A200049B9000086B040F60008C4F20108FFF78B
:101A300077FAFFF7E3FE002741F21805CDE90477B6
:101A4000CDE90277C4F20205286808F5006A40F083
:101A50001000286028684FF4005100F01000019039
:101A600001982868002240F02000286028684FF480
:101A7000005400F0200001900198286840F0040014
:101A80002860286800F00400019001985046FFF794
:101A90002DFA404640F23F210022FFF727FA02AE1E
:101AA00002944FF00109022450463146CDE90397D4
:101AB0000594FFF713F90F20CDE90209404631469E
:101AC000CDE90474FFF70AF94FF40C70CDE902096F
:101AD00040463146CDE90444FFF700F955F8040CBF
:101AE000002140F0010045F8040C55F8040C0022D8
:101AF00000F00100029002980B20FFF77FFA0B2004
:101B0000FFF76CFA40F2740008F5E051C2F20000F1
:101B10004FF460220497CDE9027780F80C900775A6
:101B2000C261C0E900178760C0F81090FEF7DEFDC3
:101B300018B1EFF3108072B6FEE70620CDE9020976
:101B4000049040F27400C2F2000002A9FEF740FDCA
:101B500018B1EFF3108072B6FEE7FFF79DFD40F27B
:101B6000700840F27400C2F20008C2F20000414660
:101B700001220125FEF7BAFE8020FFF78DFE41F617
:101B800026464D20C0F60006C0B2FFF7C7FE705DC6
:101B900001350F2DF8D1C020FFF77EFE40F2E8009E
:101BA00040F2EA06C2F200004FF48061C2F2000681
:101BB0000180642011A7741E07E000BF50464FF457
:101BC0000051FFF78BF94FF49670FFF773F8C020C0
:101BD000FFF762FEB8F80030304609213A46FEF7BA
:101BE000F7FA30780028E9D0254600BFC0B2FFF7E9
:101BF00095FEA87801350028F8D1DFE7414443205D
:101C000025640A0000000000000000000102030437
:101C100006070809010202030405060708090A0B62
:101C20000C0D0E0F10104D656173757265205465B3
:101C30006D702A4300000000581C000800000020BE
:101C40001000000028010008681C00081000002097
:101C5000F0060000440100080024F4000100000028
:081C600010000000000000006C
:04000005080000ED02
:00000001FF
